{
  "_format": "hh-sol-artifact-1",
  "contractName": "Factory",
  "sourceName": "contracts/Factory.sol",
  "abi": [
    {
      "inputs": [
        {
          "internalType": "uint256",
          "name": "_fee",
          "type": "uint256"
        }
      ],
      "stateMutability": "nonpayable",
      "type": "constructor"
    },
    {
      "anonymous": false,
      "inputs": [
        {
          "indexed": true,
          "internalType": "address",
          "name": "user",
          "type": "address"
        },
        {
          "indexed": true,
          "internalType": "address",
          "name": "token",
          "type": "address"
        },
        {
          "indexed": false,
          "internalType": "uint256",
          "name": "amount",
          "type": "uint256"
        }
      ],
      "name": "Burned",
      "type": "event"
    },
    {
      "anonymous": false,
      "inputs": [
        {
          "indexed": true,
          "internalType": "address",
          "name": "token",
          "type": "address"
        }
      ],
      "name": "Created",
      "type": "event"
    },
    {
      "anonymous": false,
      "inputs": [
        {
          "indexed": true,
          "internalType": "address",
          "name": "user",
          "type": "address"
        },
        {
          "indexed": true,
          "internalType": "address",
          "name": "token",
          "type": "address"
        },
        {
          "indexed": false,
          "internalType": "uint256",
          "name": "amount",
          "type": "uint256"
        }
      ],
      "name": "RewardClaimed",
      "type": "event"
    },
    {
      "inputs": [],
      "name": "TARGET",
      "outputs": [
        {
          "internalType": "uint256",
          "name": "",
          "type": "uint256"
        }
      ],
      "stateMutability": "view",
      "type": "function"
    },
    {
      "inputs": [],
      "name": "TOKEN_LIMIT",
      "outputs": [
        {
          "internalType": "uint256",
          "name": "",
          "type": "uint256"
        }
      ],
      "stateMutability": "view",
      "type": "function"
    },
    {
      "inputs": [
        {
          "internalType": "address",
          "name": "_token",
          "type": "address"
        },
        {
          "internalType": "uint256",
          "name": "_amount",
          "type": "uint256"
        }
      ],
      "name": "buy",
      "outputs": [],
      "stateMutability": "payable",
      "type": "function"
    },
    {
      "inputs": [
        {
          "internalType": "address",
          "name": "_token",
          "type": "address"
        }
      ],
      "name": "claimReward",
      "outputs": [],
      "stateMutability": "nonpayable",
      "type": "function"
    },
    {
      "inputs": [
        {
          "internalType": "string",
          "name": "_name",
          "type": "string"
        },
        {
          "internalType": "string",
          "name": "_symbol",
          "type": "string"
        },
        {
          "internalType": "string",
          "name": "_metadataURI",
          "type": "string"
        },
        {
          "internalType": "address",
          "name": "_creator",
          "type": "address"
        }
      ],
      "name": "create",
      "outputs": [],
      "stateMutability": "payable",
      "type": "function"
    },
    {
      "inputs": [],
      "name": "fee",
      "outputs": [
        {
          "internalType": "uint256",
          "name": "",
          "type": "uint256"
        }
      ],
      "stateMutability": "view",
      "type": "function"
    },
    {
      "inputs": [
        {
          "internalType": "address",
          "name": "_token",
          "type": "address"
        }
      ],
      "name": "getContributors",
      "outputs": [
        {
          "internalType": "address[]",
          "name": "",
          "type": "address[]"
        },
        {
          "internalType": "uint256[]",
          "name": "",
          "type": "uint256[]"
        }
      ],
      "stateMutability": "view",
      "type": "function"
    },
    {
      "inputs": [
        {
          "internalType": "uint256",
          "name": "_sold",
          "type": "uint256"
        }
      ],
      "name": "getCost",
      "outputs": [
        {
          "internalType": "uint256",
          "name": "",
          "type": "uint256"
        }
      ],
      "stateMutability": "pure",
      "type": "function"
    },
    {
      "inputs": [
        {
          "internalType": "address",
          "name": "_token",
          "type": "address"
        },
        {
          "internalType": "uint256",
          "name": "_amount",
          "type": "uint256"
        }
      ],
      "name": "getPriceForTokens",
      "outputs": [
        {
          "internalType": "uint256",
          "name": "",
          "type": "uint256"
        }
      ],
      "stateMutability": "view",
      "type": "function"
    },
    {
      "inputs": [
        {
          "internalType": "uint256",
          "name": "_index",
          "type": "uint256"
        }
      ],
      "name": "getTokenSale",
      "outputs": [
        {
          "components": [
            {
              "internalType": "address",
              "name": "token",
              "type": "address"
            },
            {
              "internalType": "string",
              "name": "name",
              "type": "string"
            },
            {
              "internalType": "string",
              "name": "metadataURI",
              "type": "string"
            },
            {
              "internalType": "address",
              "name": "creator",
              "type": "address"
            },
            {
              "internalType": "uint256",
              "name": "sold",
              "type": "uint256"
            },
            {
              "internalType": "uint256",
              "name": "raised",
              "type": "uint256"
            },
            {
              "internalType": "bool",
              "name": "isOpen",
              "type": "bool"
            },
            {
              "internalType": "bool",
              "name": "isLiquidityCreated",
              "type": "bool"
            }
          ],
          "internalType": "struct Factory.TokenSale",
          "name": "",
          "type": "tuple"
        }
      ],
      "stateMutability": "view",
      "type": "function"
    },
    {
      "inputs": [
        {
          "internalType": "address",
          "name": "",
          "type": "address"
        },
        {
          "internalType": "address",
          "name": "",
          "type": "address"
        }
      ],
      "name": "hasClaimedReward",
      "outputs": [
        {
          "internalType": "bool",
          "name": "",
          "type": "bool"
        }
      ],
      "stateMutability": "view",
      "type": "function"
    },
    {
      "inputs": [],
      "name": "nativeLiquidityPool",
      "outputs": [
        {
          "internalType": "contract NativeLiquidityPool",
          "name": "",
          "type": "address"
        }
      ],
      "stateMutability": "view",
      "type": "function"
    },
    {
      "inputs": [],
      "name": "owner",
      "outputs": [
        {
          "internalType": "address",
          "name": "",
          "type": "address"
        }
      ],
      "stateMutability": "view",
      "type": "function"
    },
    {
      "inputs": [
        {
          "internalType": "address",
          "name": "_liquidityPool",
          "type": "address"
        }
      ],
      "name": "setLiquidityPool",
      "outputs": [],
      "stateMutability": "nonpayable",
      "type": "function"
    },
    {
      "inputs": [
        {
          "internalType": "address",
          "name": "_token",
          "type": "address"
        },
        {
          "internalType": "uint256",
          "name": "_amount",
          "type": "uint256"
        }
      ],
      "name": "swap",
      "outputs": [],
      "stateMutability": "nonpayable",
      "type": "function"
    },
    {
      "inputs": [
        {
          "internalType": "address",
          "name": "",
          "type": "address"
        },
        {
          "internalType": "uint256",
          "name": "",
          "type": "uint256"
        }
      ],
      "name": "tokenContributors",
      "outputs": [
        {
          "internalType": "address",
          "name": "",
          "type": "address"
        }
      ],
      "stateMutability": "view",
      "type": "function"
    },
    {
      "inputs": [
        {
          "internalType": "address",
          "name": "",
          "type": "address"
        }
      ],
      "name": "tokenToSale",
      "outputs": [
        {
          "internalType": "address",
          "name": "token",
          "type": "address"
        },
        {
          "internalType": "string",
          "name": "name",
          "type": "string"
        },
        {
          "internalType": "string",
          "name": "metadataURI",
          "type": "string"
        },
        {
          "internalType": "address",
          "name": "creator",
          "type": "address"
        },
        {
          "internalType": "uint256",
          "name": "sold",
          "type": "uint256"
        },
        {
          "internalType": "uint256",
          "name": "raised",
          "type": "uint256"
        },
        {
          "internalType": "bool",
          "name": "isOpen",
          "type": "bool"
        },
        {
          "internalType": "bool",
          "name": "isLiquidityCreated",
          "type": "bool"
        }
      ],
      "stateMutability": "view",
      "type": "function"
    },
    {
      "inputs": [
        {
          "internalType": "uint256",
          "name": "",
          "type": "uint256"
        }
      ],
      "name": "tokens",
      "outputs": [
        {
          "internalType": "address",
          "name": "",
          "type": "address"
        }
      ],
      "stateMutability": "view",
      "type": "function"
    },
    {
      "inputs": [],
      "name": "totalTokens",
      "outputs": [
        {
          "internalType": "uint256",
          "name": "",
          "type": "uint256"
        }
      ],
      "stateMutability": "view",
      "type": "function"
    },
    {
      "inputs": [
        {
          "internalType": "address",
          "name": "",
          "type": "address"
        },
        {
          "internalType": "address",
          "name": "",
          "type": "address"
        }
      ],
      "name": "userEthContributions",
      "outputs": [
        {
          "internalType": "uint256",
          "name": "",
          "type": "uint256"
        }
      ],
      "stateMutability": "view",
      "type": "function"
    },
    {
      "inputs": [
        {
          "internalType": "address",
          "name": "",
          "type": "address"
        },
        {
          "internalType": "address",
          "name": "",
          "type": "address"
        }
      ],
      "name": "userTokenContributions",
      "outputs": [
        {
          "internalType": "uint256",
          "name": "",
          "type": "uint256"
        }
      ],
      "stateMutability": "view",
      "type": "function"
    },
    {
      "inputs": [
        {
          "internalType": "uint256",
          "name": "_amount",
          "type": "uint256"
        }
      ],
      "name": "withdraw",
      "outputs": [],
      "stateMutability": "nonpayable",
      "type": "function"
    }
  ],
  "bytecode": "0x60a0604052348015600f57600080fd5b50604051612fda380380612fda833981016040819052602c916045565b608052600080546001600160a01b03191633179055605d565b600060208284031215605657600080fd5b5051919050565b608051612f5b61007f6000396000818161044e01526109e00152612f5b6000f3fe6080604052600436106101355760003560e01c806382cbdc0f116100ab578063cce7ec131161006f578063cce7ec13146103c9578063d004f0f7146103dc578063d279c191146103fc578063d8bc3c801461041c578063ddca3f431461043c578063e11a0bd81461047057600080fd5b806382cbdc0f146102fb5780638da5cb5b1461030e5780639aaa546c1461032e5780639c0ad5ed14610379578063cc1f2afa146103ad57600080fd5b806343e9658c116100fd57806343e9658c1461020757806347fb20fd146102355780634f64b2be1461026d5780635a4dd47d1461028d578063764394a0146102ad5780637e1c0c09146102e557600080fd5b8063018770201461013a578063031bd4c41461015c578063036e8cab1461018d5780631fbc147b146101ba5780632e1a7d4d146101e7575b600080fd5b34801561014657600080fd5b5061015a610155366004611936565b610490565b005b34801561016857600080fd5b5061017a6969e10de76676d080000081565b6040519081526020015b60405180910390f35b34801561019957600080fd5b506008546101ad906001600160a01b031681565b6040516101849190611958565b3480156101c657600080fd5b506101da6101d536600461196c565b6104e5565b60405161018491906119cb565b3480156101f357600080fd5b5061015a61020236600461196c565b610753565b34801561021357600080fd5b50610227610222366004611936565b610824565b604051610184929190611aeb565b34801561024157600080fd5b5061017a610250366004611b10565b600460209081526000928352604080842090915290825290205481565b34801561027957600080fd5b506101ad61028836600461196c565b610975565b34801561029957600080fd5b5061017a6102a836600461196c565b61099f565b3480156102b957600080fd5b5061017a6102c8366004611b10565b600560209081526000928352604080842090915290825290205481565b3480156102f157600080fd5b5061017a60015481565b61015a610309366004611be6565b6109de565b34801561031a57600080fd5b506000546101ad906001600160a01b031681565b34801561033a57600080fd5b50610369610349366004611b10565b600660209081526000928352604080842090915290825290205460ff1681565b6040519015158152602001610184565b34801561038557600080fd5b50610399610394366004611936565b610c39565b604051610184989796959493929190611c88565b3480156103b957600080fd5b5061017a6729a2241af62c000081565b61015a6103d7366004611cf8565b610da5565b3480156103e857600080fd5b5061015a6103f7366004611cf8565b61108a565b34801561040857600080fd5b5061015a610417366004611936565b6112f1565b34801561042857600080fd5b506101ad610437366004611cf8565b611545565b34801561044857600080fd5b5061017a7f000000000000000000000000000000000000000000000000000000000000000081565b34801561047c57600080fd5b5061017a61048b366004611cf8565b61157d565b6000546001600160a01b031633146104c35760405162461bcd60e51b81526004016104ba90611d22565b60405180910390fd5b600880546001600160a01b0319166001600160a01b0392909216919091179055565b61054360405180610100016040528060006001600160a01b03168152602001606081526020016060815260200160006001600160a01b0316815260200160008152602001600081526020016000151581526020016000151581525090565b600254821061058a5760405162461bcd60e51b8152602060048201526013602482015272496e646578206f7574206f6620626f756e647360681b60448201526064016104ba565b60036000600284815481106105a1576105a1611d63565b60009182526020808320909101546001600160a01b0390811684528382019490945260409283019091208251610100810190935280549093168252600183018054929392918401916105f290611d79565b80601f016020809104026020016040519081016040528092919081815260200182805461061e90611d79565b801561066b5780601f106106405761010080835404028352916020019161066b565b820191906000526020600020905b81548152906001019060200180831161064e57829003601f168201915b5050505050815260200160028201805461068490611d79565b80601f01602080910402602001604051908101604052809291908181526020018280546106b090611d79565b80156106fd5780601f106106d2576101008083540402835291602001916106fd565b820191906000526020600020905b8154815290600101906020018083116106e057829003601f168201915b505050918352505060038201546001600160a01b03166020820152600482015460408201526005820154606082015260069091015460ff8082161515608084015261010090910416151560a09091015292915050565b6000546001600160a01b0316331461077d5760405162461bcd60e51b81526004016104ba90611d22565b600080546040516001600160a01b039091169083908381818185875af1925050503d80600081146107ca576040519150601f19603f3d011682016040523d82523d6000602084013e6107cf565b606091505b50509050806108205760405162461bcd60e51b815260206004820152601c60248201527f466163746f72793a20455448207472616e73666572206661696c65640000000060448201526064016104ba565b5050565b6001600160a01b038116600090815260076020908152604080832080548251818502810185019093528083526060948594909392919083018282801561089357602002820191906000526020600020905b81546001600160a01b03168152600190910190602001808311610875575b50505050509050600081516001600160401b038111156108b5576108b5611b43565b6040519080825280602002602001820160405280156108de578160200160208202803683370190505b50905060005b825181101561096a576001600160a01b0386166000908152600560205260408120845190919085908490811061091c5761091c611d63565b60200260200101516001600160a01b03166001600160a01b031681526020019081526020016000205482828151811061095757610957611d63565b60209081029190910101526001016108e4565b509094909350915050565b6002818154811061098557600080fd5b6000918252602090912001546001600160a01b0316905081565b6000655af3107a40008069021e19e0c9bab240000083826109c08388611dc9565b6109ca9085611deb565b6109d49190611e02565b9695505050505050565b7f0000000000000000000000000000000000000000000000000000000000000000341015610a445760405162461bcd60e51b815260206004820152601360248201527210dc99585d1bdc88199959481b9bdd081b595d606a1b60448201526064016104ba565b6001600160a01b038116610a555750335b60008185858569d3c21bcecceda1000000604051610a729061190d565b610a80959493929190611e15565b604051809103906000f080158015610a9c573d6000803e3d6000fd5b50600280546001808201835560009283527f405787fa12a823e0f2b7631cc41b3ba8828b3321ca811111fa75cd3aa3bb5ace90910180546001600160a01b0319166001600160a01b038516179055805492935090610af983611e72565b909155505060408051610100810182526001600160a01b0383811680835260208084018a8152848601899052878416606086015260006080860181905260a08601819052600160c0870181905260e087018290529381526003909252949020835181546001600160a01b031916931692909217825592519192839290820190610b829082611eda565b5060408201516002820190610b979082611eda565b5060608201516003820180546001600160a01b0319166001600160a01b039283161790556080830151600483015560a0830151600583015560c08301516006909201805460e09094015161ffff1990941692151561ff0019169290921761010093151593909302929092179055604051908316907f1449abf21e49fd025f33495e77f7b1461caefdd3d4bb646424a3f445c4576a5b90600090a2505050505050565b600360205260009081526040902080546001820180546001600160a01b039092169291610c6590611d79565b80601f0160208091040260200160405190810160405280929190818152602001828054610c9190611d79565b8015610cde5780601f10610cb357610100808354040283529160200191610cde565b820191906000526020600020905b815481529060010190602001808311610cc157829003601f168201915b505050505090806002018054610cf390611d79565b80601f0160208091040260200160405190810160405280929190818152602001828054610d1f90611d79565b8015610d6c5780601f10610d4157610100808354040283529160200191610d6c565b820191906000526020600020905b815481529060010190602001808311610d4f57829003601f168201915b5050505060038301546004840154600585015460069095015493946001600160a01b039092169390925060ff8082169161010090041688565b6001600160a01b038083166000908152600360205260409020805490911615801590610dd55750600681015460ff165b610df15760405162461bcd60e51b81526004016104ba90611f98565b670de0b6b3a76400008210158015610e13575069021e19e0c9bab24000008211155b610e2f5760405162461bcd60e51b81526004016104ba90611fbc565b6000610e43670de0b6b3a764000084611dc9565b610e50836004015461099f565b610e5a9190611deb565b905080341015610ea85760405162461bcd60e51b8152602060048201526019602482015278125b9cdd59999a58da595b9d08115512081c9958d95a5d9959603a1b60448201526064016104ba565b6001600160a01b03841660009081526004602090815260408083203384529091528120549003610f0b576001600160a01b03841660009081526007602090815260408220805460018101825590835291200180546001600160a01b031916331790555b6001600160a01b038416600090815260046020908152604080832033845290915281208054859290610f3e908490611e02565b90915550506001600160a01b038416600090815260056020908152604080832033845290915281208054349290610f76908490611e02565b909155505060405163a9059cbb60e01b81526001600160a01b0385169063a9059cbb90610fa99033908790600401611fdd565b6020604051808303816000875af1158015610fc8573d6000803e3d6000fd5b505050506040513d601f19601f82011682018060405250810190610fec9190611ff6565b50828260040160008282546110019190611e02565b925050819055503482600501600082825461101c9190611e02565b909155505060048201546969e10de76676d080000011158061104a57506729a2241af62c0000826005015410155b156110845760068201805460ff191690819055610100900460ff16611084576110728461162a565b60068201805461ff0019166101001790555b50505050565b600081116110da5760405162461bcd60e51b815260206004820152601d60248201527f416d6f756e74206d7573742062652067726561746572207468616e203000000060448201526064016104ba565b6040516370a0823160e01b815281906001600160a01b038416906370a0823190611108903390600401611958565b602060405180830381865afa158015611125573d6000803e3d6000fd5b505050506040513d601f19601f820116820180604052508101906111499190612018565b10156111975760405162461bcd60e51b815260206004820152601a60248201527f496e73756666696369656e7420746f6b656e2062616c616e636500000000000060448201526064016104ba565b6040516323b872dd60e01b8152336004820152306024820152604481018290526001600160a01b038316906323b872dd906064016020604051808303816000875af11580156111ea573d6000803e3d6000fd5b505050506040513d601f19601f8201168201806040525081019061120e9190611ff6565b61124c5760405162461bcd60e51b815260206004820152600f60248201526e151c985b9cd9995c8819985a5b1959608a1b60448201526064016104ba565b604051633f34d4cf60e21b8152600481018290523060248201526001600160a01b0383169063fcd3533c90604401600060405180830381600087803b15801561129457600080fd5b505af11580156112a8573d6000803e3d6000fd5b50506040518381526001600160a01b03851692503391507f6ab368f832c266c8eb942b84fbcaa20aedc24a699d2a05fae2568028733b1d09906020015b60405180910390a35050565b6001600160a01b038116600090815260036020526040902060060154610100900460ff1661135d5760405162461bcd60e51b8152602060048201526019602482015278131a5c5d5a591a5d1e481b9bdd0818dc99585d1959081e595d603a1b60448201526064016104ba565b6001600160a01b038116600090815260066020908152604080832033845290915290205460ff16156113ca5760405162461bcd60e51b815260206004820152601660248201527514995dd85c9908185b1c9958591e4818db185a5b595960521b60448201526064016104ba565b6001600160a01b03811660009081526004602090815260408083203384529091529020546114325760405162461bcd60e51b8152602060048201526015602482015274139bc818dbdb9d1c9a589d5d1a5bdb88199bdd5b99605a1b60448201526064016104ba565b600061143e823361180a565b9050600081116114865760405162461bcd60e51b81526020600482015260136024820152724e6f2072657761726420617661696c61626c6560681b60448201526064016104ba565b6001600160a01b038216600081815260066020908152604080832033808552925291829020805460ff1916600117905590516340c10f1960e01b81526340c10f19916114d6918590600401611fdd565b600060405180830381600087803b1580156114f057600080fd5b505af1158015611504573d6000803e3d6000fd5b50506040518381526001600160a01b03851692503391507f0aa4d283470c904c551d18bb894d37e17674920f3261a7f854be501e25f421b7906020016112e5565b6007602052816000526040600020818154811061156157600080fd5b6000918252602090912001546001600160a01b03169150829050565b6001600160a01b0382166000908152600360205260408120670de0b6b3a764000083108015906115b7575069021e19e0c9bab24000008311155b6115d35760405162461bcd60e51b81526004016104ba90611fbc565b600681015460ff166115f75760405162461bcd60e51b81526004016104ba90611f98565b611609670de0b6b3a764000084611dc9565b611616826004015461099f565b6116209190611deb565b9150505b92915050565b6001600160a01b03811660009081526003602052604090206006810154610100900460ff16156116985760405162461bcd60e51b8152602060048201526019602482015278131a5c5d5a591a5d1e48185b1c9958591e4818dc99585d1959603a1b60448201526064016104ba565b6040516370a0823160e01b815282906000906001600160a01b038316906370a08231906116c9903090600401611958565b602060405180830381865afa1580156116e6573d6000803e3d6000fd5b505050506040513d601f19601f8201168201806040525081019061170a9190612018565b905060008061171886610824565b60085460405163095ea7b360e01b81529294509092506001600160a01b038087169263095ea7b3926117509216908790600401611fdd565b6020604051808303816000875af115801561176f573d6000803e3d6000fd5b505050506040513d601f19601f820116820180604052508101906117939190611ff6565b5060085460058601546040516358c76a2360e11b81526001600160a01b039092169163b18ed44691906117d0908a90889088908890600401612031565b6000604051808303818588803b1580156117e957600080fd5b505af11580156117fd573d6000803e3d6000fd5b5050505050505050505050565b6001600160a01b038216600090815260036020526040812060060154610100900460ff16158061185f57506001600160a01b0380841660009081526006602090815260408083209386168352929052205460ff165b8061188d57506001600160a01b03808416600090815260046020908152604080832093861683529290522054155b1561189a57506000611624565b6001600160a01b03808416600081815260046020818152604080842095881684529481528483205493835260039052929020918201549091906118de906064611deb565b82600383600501546118f09190611deb565b6118fa9190611deb565b6119049190611dc9565b95945050505050565b610eb08061207683390190565b80356001600160a01b038116811461193157600080fd5b919050565b60006020828403121561194857600080fd5b6119518261191a565b9392505050565b6001600160a01b0391909116815260200190565b60006020828403121561197e57600080fd5b5035919050565b6000815180845260005b818110156119ab5760208185018101518683018201520161198f565b506000602082860101526020601f19601f83011685010191505092915050565b602080825282516001600160a01b03168282015282015161010060408301526000906119fb610120840182611985565b90506040840151601f19848303016060850152611a188282611985565b9150506060840151611a3560808501826001600160a01b03169052565b50608084015160a084015260a084015160c084015260c0840151611a5d60e085018215159052565b5060e0840151801515610100850152509392505050565b600081518084526020840193506020830160005b82811015611aaf5781516001600160a01b0316865260209586019590910190600101611a88565b5093949350505050565b600081518084526020840193506020830160005b82811015611aaf578151865260209586019590910190600101611acd565b604081526000611afe6040830185611a74565b82810360208401526119048185611ab9565b60008060408385031215611b2357600080fd5b611b2c8361191a565b9150611b3a6020840161191a565b90509250929050565b634e487b7160e01b600052604160045260246000fd5b600082601f830112611b6a57600080fd5b81356001600160401b03811115611b8357611b83611b43565b604051601f8201601f19908116603f011681016001600160401b0381118282101715611bb157611bb1611b43565b604052818152838201602001851015611bc957600080fd5b816020850160208301376000918101602001919091529392505050565b60008060008060808587031215611bfc57600080fd5b84356001600160401b03811115611c1257600080fd5b611c1e87828801611b59565b94505060208501356001600160401b03811115611c3a57600080fd5b611c4687828801611b59565b93505060408501356001600160401b03811115611c6257600080fd5b611c6e87828801611b59565b925050611c7d6060860161191a565b905092959194509250565b6001600160a01b038916815261010060208201819052600090611cad9083018a611985565b8281036040840152611cbf818a611985565b6001600160a01b039890981660608401525050608081019490945260a0840192909252151560c0830152151560e0909101529392505050565b60008060408385031215611d0b57600080fd5b611d148361191a565b946020939093013593505050565b60208082526021908201527f4f6e6c79206f776e65722063616e2063616c6c20746869732066756e6374696f6040820152603760f91b606082015260800190565b634e487b7160e01b600052603260045260246000fd5b600181811c90821680611d8d57607f821691505b602082108103611dad57634e487b7160e01b600052602260045260246000fd5b50919050565b634e487b7160e01b600052601160045260246000fd5b600082611de657634e487b7160e01b600052601260045260246000fd5b500490565b808202811582820484141761162457611624611db3565b8082018082111561162457611624611db3565b6001600160a01b038616815260a060208201819052600090611e3990830187611985565b8281036040840152611e4b8187611985565b90508281036060840152611e5f8186611985565b9150508260808301529695505050505050565b600060018201611e8457611e84611db3565b5060010190565b601f821115611ed557806000526020600020601f840160051c81016020851015611eb25750805b601f840160051c820191505b81811015611ed25760008155600101611ebe565b50505b505050565b81516001600160401b03811115611ef357611ef3611b43565b611f0781611f018454611d79565b84611e8b565b6020601f821160018114611f3b5760008315611f235750848201515b600019600385901b1c1916600184901b178455611ed2565b600084815260208120601f198516915b82811015611f6b5787850151825560209485019460019092019101611f4b565b5084821015611f895786840151600019600387901b60f8161c191681555b50505050600190811b01905550565b6020808252600a908201526921617661696c61626c6560b01b604082015260600190565b60208082526007908201526608585b5bdd5b9d60ca1b604082015260600190565b6001600160a01b03929092168252602082015260400190565b60006020828403121561200857600080fd5b8151801515811461195157600080fd5b60006020828403121561202a57600080fd5b5051919050565b60018060a01b03851681528360208201526080604082015260006120586080830185611a74565b828103606084015261206a8185611ab9565b97965050505050505056fe608060405234801561001057600080fd5b50604051610eb0380380610eb083398101604081905261002f916102b9565b8383600361003d8382610403565b50600461004a8282610403565b505060058054336001600160a01b031991821617909155600680549091166001600160a01b0388161790555060076100828382610403565b5061008d3382610097565b50505050506104e8565b6001600160a01b0382166100c65760405163ec442f0560e01b8152600060048201526024015b60405180910390fd5b6100d2600083836100d6565b5050565b6001600160a01b0383166101015780600260008282546100f691906104c1565b909155506101739050565b6001600160a01b038316600090815260208190526040902054818110156101545760405163391434e360e21b81526001600160a01b038516600482015260248101829052604481018390526064016100bd565b6001600160a01b03841660009081526020819052604090209082900390555b6001600160a01b03821661018f576002805482900390556101ae565b6001600160a01b03821660009081526020819052604090208054820190555b816001600160a01b0316836001600160a01b03167fddf252ad1be2c89b69c2b068fc378daa952ba7f163c4a11628f55a4df523b3ef836040516101f391815260200190565b60405180910390a3505050565b634e487b7160e01b600052604160045260246000fd5b600082601f83011261022757600080fd5b81516001600160401b0381111561024057610240610200565b604051601f8201601f19908116603f011681016001600160401b038111828210171561026e5761026e610200565b60405281815283820160200185101561028657600080fd5b60005b828110156102a557602081860181015183830182015201610289565b506000918101602001919091529392505050565b600080600080600060a086880312156102d157600080fd5b85516001600160a01b03811681146102e857600080fd5b60208701519095506001600160401b0381111561030457600080fd5b61031088828901610216565b604088015190955090506001600160401b0381111561032e57600080fd5b61033a88828901610216565b606088015190945090506001600160401b0381111561035857600080fd5b61036488828901610216565b6080979097015195989497509295949392505050565b600181811c9082168061038e57607f821691505b6020821081036103ae57634e487b7160e01b600052602260045260246000fd5b50919050565b601f8211156103fe57806000526020600020601f840160051c810160208510156103db5750805b601f840160051c820191505b818110156103fb57600081556001016103e7565b50505b505050565b81516001600160401b0381111561041c5761041c610200565b6104308161042a845461037a565b846103b4565b6020601f821160018114610464576000831561044c5750848201515b600019600385901b1c1916600184901b1784556103fb565b600084815260208120601f198516915b828110156104945787850151825560209485019460019092019101610474565b50848210156104b25786840151600019600387901b60f8161c191681555b50505050600190811b01905550565b808201808211156104e257634e487b7160e01b600052601160045260246000fd5b92915050565b6109b9806104f76000396000f3fe608060405234801561001057600080fd5b50600436106100ca5760003560e01c806340c10f191161007c57806340c10f191461016c57806370a08231146101815780638da5cb5b146101aa57806395d89b41146101bd578063a9059cbb146101c5578063dd62ed3e146101d8578063fcd3533c146101eb57600080fd5b806302d05d3f146100cf57806303ee438c146100f857806306fdde031461010d578063095ea7b31461011557806318160ddd1461013857806323b872dd1461014a578063313ce5671461015d575b600080fd5b6006546100e2906001600160a01b031681565b6040516100ef91906107aa565b60405180910390f35b6101006101fe565b6040516100ef91906107be565b61010061028c565b610128610123366004610828565b61031e565b60405190151581526020016100ef565b6002545b6040519081526020016100ef565b610128610158366004610852565b610338565b604051601281526020016100ef565b61017f61017a366004610828565b61035c565b005b61013c61018f36600461088f565b6001600160a01b031660009081526020819052604090205490565b6005546100e2906001600160a01b031681565b6101006103d5565b6101286101d3366004610828565b6103e4565b61013c6101e63660046108b1565b6103f2565b61017f6101f93660046108e4565b61041d565b6007805461020b90610907565b80601f016020809104026020016040519081016040528092919081815260200182805461023790610907565b80156102845780601f1061025957610100808354040283529160200191610284565b820191906000526020600020905b81548152906001019060200180831161026757829003601f168201915b505050505081565b60606003805461029b90610907565b80601f01602080910402602001604051908101604052809291908181526020018280546102c790610907565b80156103145780601f106102e957610100808354040283529160200191610314565b820191906000526020600020905b8154815290600101906020018083116102f757829003601f168201915b5050505050905090565b60003361032c81858561048d565b60019150505b92915050565b60003361034685828561049f565b6103518585856104f3565b506001949350505050565b6005546001600160a01b031633146103c75760405162461bcd60e51b8152602060048201526024808201527f4d696e742063616e206f6e6c792062652063616c6c656420627920746865206f6044820152633bb732b960e11b60648201526084015b60405180910390fd5b6103d18282610552565b5050565b60606004805461029b90610907565b60003361032c8185856104f3565b6001600160a01b03918216600090815260016020908152604080832093909416825291909152205490565b6005546001600160a01b031633146104835760405162461bcd60e51b8152602060048201526024808201527f4275726e2063616e206f6e6c792062652063616c6c656420627920746865206f6044820152633bb732b960e11b60648201526084016103be565b6103d18183610588565b61049a83838360016105be565b505050565b60006104ab84846103f2565b90506000198110156104ed57818110156104de57828183604051637dc7a0d960e11b81526004016103be93929190610941565b6104ed848484840360006105be565b50505050565b6001600160a01b03831661051d576000604051634b637e8f60e11b81526004016103be91906107aa565b6001600160a01b03821661054757600060405163ec442f0560e01b81526004016103be91906107aa565b61049a838383610693565b6001600160a01b03821661057c57600060405163ec442f0560e01b81526004016103be91906107aa565b6103d160008383610693565b6001600160a01b0382166105b2576000604051634b637e8f60e11b81526004016103be91906107aa565b6103d182600083610693565b6001600160a01b0384166105e857600060405163e602df0560e01b81526004016103be91906107aa565b6001600160a01b038316610612576000604051634a1406b160e11b81526004016103be91906107aa565b6001600160a01b03808516600090815260016020908152604080832093871683529290522082905580156104ed57826001600160a01b0316846001600160a01b03167f8c5be1e5ebec7d5bd14f71427d1e84f3dd0314c0f7b2291e5b200ac8c7c3b9258460405161068591815260200190565b60405180910390a350505050565b6001600160a01b0383166106be5780600260008282546106b39190610962565b9091555061071d9050565b6001600160a01b038316600090815260208190526040902054818110156106fe5783818360405163391434e360e21b81526004016103be93929190610941565b6001600160a01b03841660009081526020819052604090209082900390555b6001600160a01b03821661073957600280548290039055610758565b6001600160a01b03821660009081526020819052604090208054820190555b816001600160a01b0316836001600160a01b03167fddf252ad1be2c89b69c2b068fc378daa952ba7f163c4a11628f55a4df523b3ef8360405161079d91815260200190565b60405180910390a3505050565b6001600160a01b0391909116815260200190565b602081526000825180602084015260005b818110156107ec57602081860181015160408684010152016107cf565b506000604082850101526040601f19601f83011684010191505092915050565b80356001600160a01b038116811461082357600080fd5b919050565b6000806040838503121561083b57600080fd5b6108448361080c565b946020939093013593505050565b60008060006060848603121561086757600080fd5b6108708461080c565b925061087e6020850161080c565b929592945050506040919091013590565b6000602082840312156108a157600080fd5b6108aa8261080c565b9392505050565b600080604083850312156108c457600080fd5b6108cd8361080c565b91506108db6020840161080c565b90509250929050565b600080604083850312156108f757600080fd5b823591506108db6020840161080c565b600181811c9082168061091b57607f821691505b60208210810361093b57634e487b7160e01b600052602260045260246000fd5b50919050565b6001600160a01b039390931683526020830191909152604082015260600190565b8082018082111561033257634e487b7160e01b600052601160045260246000fdfea2646970667358221220b34ce9a151ab6aa72b8246a9fe2be7a1b1aed4b1cc5c075caef739100b21d22964736f6c634300081c0033a2646970667358221220e6856cea1fb512435f5099d473aaf828109f797a27dc846f99d71dcba8e8538264736f6c634300081c0033",
  "linkReferences": {},
  "deployedLinkReferences": {}
}