{
  "_format": "hh-sol-artifact-1",
  "contractName": "CrossChainMessenger",
  "sourceName": "contracts/CrossChainMessenger.sol",
  "abi": [
    {
      "inputs": [
        {
          "internalType": "address",
          "name": "_inbox",
          "type": "address"
        },
        {
          "internalType": "address",
          "name": "_bridge",
          "type": "address"
        },
        {
          "internalType": "address",
          "name": "_outbox",
          "type": "address"
        },
        {
          "internalType": "address",
          "name": "_factory",
          "type": "address"
        }
      ],
      "stateMutability": "nonpayable",
      "type": "constructor"
    },
    {
      "anonymous": false,
      "inputs": [
        {
          "indexed": true,
          "internalType": "address",
          "name": "sender",
          "type": "address"
        },
        {
          "indexed": true,
          "internalType": "uint32",
          "name": "sourceChainId",
          "type": "uint32"
        },
        {
          "indexed": false,
          "internalType": "bytes",
          "name": "data",
          "type": "bytes"
        }
      ],
      "name": "MessageReceivedFromChain",
      "type": "event"
    },
    {
      "anonymous": false,
      "inputs": [
        {
          "indexed": true,
          "internalType": "uint256",
          "name": "messageNum",
          "type": "uint256"
        },
        {
          "indexed": true,
          "internalType": "address",
          "name": "sender",
          "type": "address"
        },
        {
          "indexed": true,
          "internalType": "uint32",
          "name": "targetChainId",
          "type": "uint32"
        },
        {
          "indexed": false,
          "internalType": "bytes",
          "name": "data",
          "type": "bytes"
        }
      ],
      "name": "MessageSentToChain",
      "type": "event"
    },
    {
      "anonymous": false,
      "inputs": [
        {
          "indexed": true,
          "internalType": "uint32",
          "name": "chainId",
          "type": "uint32"
        },
        {
          "indexed": true,
          "internalType": "address",
          "name": "factory",
          "type": "address"
        }
      ],
      "name": "PeerFactoryAdded",
      "type": "event"
    },
    {
      "anonymous": false,
      "inputs": [
        {
          "indexed": true,
          "internalType": "uint32",
          "name": "chainId",
          "type": "uint32"
        }
      ],
      "name": "PeerFactoryRemoved",
      "type": "event"
    },
    {
      "inputs": [],
      "name": "bridge",
      "outputs": [
        {
          "internalType": "contract IBridge",
          "name": "",
          "type": "address"
        }
      ],
      "stateMutability": "view",
      "type": "function"
    },
    {
      "inputs": [],
      "name": "factory",
      "outputs": [
        {
          "internalType": "contract Factory",
          "name": "",
          "type": "address"
        }
      ],
      "stateMutability": "view",
      "type": "function"
    },
    {
      "inputs": [],
      "name": "getPeerChainIds",
      "outputs": [
        {
          "internalType": "uint32[]",
          "name": "",
          "type": "uint32[]"
        }
      ],
      "stateMutability": "view",
      "type": "function"
    },
    {
      "inputs": [],
      "name": "inbox",
      "outputs": [
        {
          "internalType": "contract IInbox",
          "name": "",
          "type": "address"
        }
      ],
      "stateMutability": "view",
      "type": "function"
    },
    {
      "inputs": [],
      "name": "outbox",
      "outputs": [
        {
          "internalType": "contract IOutbox",
          "name": "",
          "type": "address"
        }
      ],
      "stateMutability": "view",
      "type": "function"
    },
    {
      "inputs": [
        {
          "internalType": "uint256",
          "name": "",
          "type": "uint256"
        }
      ],
      "name": "peerChainIds",
      "outputs": [
        {
          "internalType": "uint32",
          "name": "",
          "type": "uint32"
        }
      ],
      "stateMutability": "view",
      "type": "function"
    },
    {
      "inputs": [
        {
          "internalType": "uint32",
          "name": "",
          "type": "uint32"
        }
      ],
      "name": "peerFactories",
      "outputs": [
        {
          "internalType": "address",
          "name": "",
          "type": "address"
        }
      ],
      "stateMutability": "view",
      "type": "function"
    },
    {
      "inputs": [
        {
          "internalType": "address",
          "name": "sender",
          "type": "address"
        },
        {
          "internalType": "bytes",
          "name": "data",
          "type": "bytes"
        }
      ],
      "name": "processMessageFromChain",
      "outputs": [],
      "stateMutability": "nonpayable",
      "type": "function"
    },
    {
      "inputs": [
        {
          "internalType": "uint32",
          "name": "chainId",
          "type": "uint32"
        }
      ],
      "name": "removePeerFactory",
      "outputs": [],
      "stateMutability": "nonpayable",
      "type": "function"
    },
    {
      "inputs": [
        {
          "internalType": "uint32",
          "name": "targetChainId",
          "type": "uint32"
        },
        {
          "internalType": "string",
          "name": "_symbol",
          "type": "string"
        },
        {
          "internalType": "address",
          "name": "_recipient",
          "type": "address"
        },
        {
          "internalType": "uint256",
          "name": "_amount",
          "type": "uint256"
        }
      ],
      "name": "sendBridgeTokensToOtherChain",
      "outputs": [],
      "stateMutability": "nonpayable",
      "type": "function"
    },
    {
      "inputs": [
        {
          "internalType": "uint32",
          "name": "targetChainId",
          "type": "uint32"
        },
        {
          "internalType": "string",
          "name": "_name",
          "type": "string"
        },
        {
          "internalType": "string",
          "name": "_symbol",
          "type": "string"
        },
        {
          "internalType": "string",
          "name": "_metadataURI",
          "type": "string"
        },
        {
          "internalType": "address",
          "name": "_creator",
          "type": "address"
        }
      ],
      "name": "sendCreateTokenToOtherChain",
      "outputs": [],
      "stateMutability": "payable",
      "type": "function"
    },
    {
      "inputs": [
        {
          "internalType": "uint32",
          "name": "targetChainId",
          "type": "uint32"
        },
        {
          "internalType": "string",
          "name": "_symbol",
          "type": "string"
        }
      ],
      "name": "sendLiquidityCreatedToOtherChain",
      "outputs": [],
      "stateMutability": "nonpayable",
      "type": "function"
    },
    {
      "inputs": [
        {
          "internalType": "uint32",
          "name": "chainId",
          "type": "uint32"
        },
        {
          "internalType": "address",
          "name": "peerFactory",
          "type": "address"
        }
      ],
      "name": "setPeerFactory",
      "outputs": [],
      "stateMutability": "nonpayable",
      "type": "function"
    }
  ],
  "bytecode": "0x61010060405234801561001157600080fd5b50604051611d97380380611d978339810160408190526100309161006e565b6001600160a01b0393841660805291831660a052821660c0521660e0526100c2565b80516001600160a01b038116811461006957600080fd5b919050565b6000806000806080858703121561008457600080fd5b61008d85610052565b935061009b60208601610052565b92506100a960408601610052565b91506100b760608601610052565b905092959194509250565b60805160a05160c05160e051611c3a61015d600039600081816101f5015281816102f10152818161052a0152818161078d01528181610a0101528181610ac201528181610b8e01528181610d56015261102001526000818161022901526109500152600061025d0152600081816102c40152818161061d0152818161069e0152818161087301528181610e530152610f2e0152611c3a6000f3fe6080604052600436106100b25760003560e01c80638f6afeeb1161006f5780638f6afeeb14610195578063c45a0155146101e3578063ce11e6ab14610217578063e78cea921461024b578063f0620e521461027f578063f65dff3a14610292578063fb0e722b146102b257600080fd5b8063086cd21a146100b75780630ec1ab04146100d95780631898e18c146100f95780636b8acc501461011957806370d66e23146101395780637a8253b314610173575b600080fd5b3480156100c357600080fd5b506100d76100d2366004611206565b6102e6565b005b3480156100e557600080fd5b506100d76100f43660046112f3565b61051f565b34801561010557600080fd5b506100d7610114366004611358565b610782565b34801561012557600080fd5b506100d76101343660046113bf565b610945565b34801561014557600080fd5b50610159610154366004611418565b610c8d565b60405163ffffffff90911681526020015b60405180910390f35b34801561017f57600080fd5b50610188610cc7565b60405161016a9190611431565b3480156101a157600080fd5b506101cb6101b0366004611206565b6000602081905290815260409020546001600160a01b031681565b6040516001600160a01b03909116815260200161016a565b3480156101ef57600080fd5b506101cb7f000000000000000000000000000000000000000000000000000000000000000081565b34801561022357600080fd5b506101cb7f000000000000000000000000000000000000000000000000000000000000000081565b34801561025757600080fd5b506101cb7f000000000000000000000000000000000000000000000000000000000000000081565b6100d761028d36600461147a565b610d4b565b34801561029e57600080fd5b506100d76102ad366004611531565b611015565b3480156102be57600080fd5b506101cb7f000000000000000000000000000000000000000000000000000000000000000081565b336001600160a01b037f000000000000000000000000000000000000000000000000000000000000000016146103375760405162461bcd60e51b815260040161032e90611568565b60405180910390fd5b63ffffffff81166000908152602081905260409020546001600160a01b03166103a25760405162461bcd60e51b815260206004820152601a60248201527f5065657220666163746f727920646f65736e2774206578697374000000000000604482015260640161032e565b63ffffffff8116600090815260208190526040812080546001600160a01b03191690555b6001548110156104ea578163ffffffff16600182815481106103ea576103ea611597565b6000918252602090912060088204015460079091166004026101000a900463ffffffff16036104e257600180546104229082906115c3565b8154811061043257610432611597565b90600052602060002090600891828204019190066004029054906101000a900463ffffffff166001828154811061046b5761046b611597565b90600052602060002090600891828204019190066004026101000a81548163ffffffff021916908363ffffffff16021790555060018054806104af576104af6115dc565b600082815260209020600860001990920191820401805463ffffffff600460078516026101000a021916905590556104ea565b6001016103c6565b5060405163ffffffff8216907f75b4d9b326837c6bb7c643bda360d84122c01817217ca24d2acf80b243bf92ef90600090a250565b336001600160a01b037f000000000000000000000000000000000000000000000000000000000000000016146105675760405162461bcd60e51b815260040161032e90611568565b63ffffffff82166000908152602081905260409020546001600160a01b0316806105a35760405162461bcd60e51b815260040161032e906115f2565b60004233846040516020016105ba9392919061164d565b6040516020818303038152906040528051906020012090506000600382856040516020016105ea939291906116ce565b60408051808303601f1901815290829052805163a66b327d60e01b835260048301524860248301819052909250906000907f00000000000000000000000000000000000000000000000000000000000000006001600160a01b03169063a66b327d90604401602060405180830381865afa15801561066c573d6000803e3d6000fd5b505050506040513d601f19601f8201168201806040525081019061069091906116f9565b905060006001600160a01b037f00000000000000000000000000000000000000000000000000000000000000001663679b6ded838884823380622dc6c06106d88c6002611712565b8d6040518a63ffffffff1660e01b81526004016106fc989796959493929190611729565b60206040518083038185885af115801561071a573d6000803e3d6000fd5b50505050506040513d601f19601f8201168201806040525081019061073f91906116f9565b90508763ffffffff16336001600160a01b031682600080516020611be5833981519152876040516107709190611788565b60405180910390a45050505050505050565b336001600160a01b037f000000000000000000000000000000000000000000000000000000000000000016146107ca5760405162461bcd60e51b815260040161032e90611568565b63ffffffff84166000908152602081905260409020546001600160a01b0316806108065760405162461bcd60e51b815260040161032e906115f2565b6000423386868660405160200161082195949392919061179b565b60405160208183030381529060405280519060200120905060006002828787876040516020016108559594939291906117f5565b60408051601f19818403018152919052905060006001600160a01b037f00000000000000000000000000000000000000000000000000000000000000001663679b6ded828681803380622dc6c06108ad486002611712565b8b6040518a63ffffffff1660e01b81526004016108d1989796959493929190611729565b60206040518083038185885af11580156108ef573d6000803e3d6000fd5b50505050506040513d601f19601f8201168201806040525081019061091491906116f9565b90508763ffffffff16336001600160a01b031682600080516020611be5833981519152856040516107709190611788565b336001600160a01b037f000000000000000000000000000000000000000000000000000000000000000016146109b45760405162461bcd60e51b815260206004820152601460248201527313db9b1e481bdd5d189bde0818d85b8818d85b1b60621b604482015260640161032e565b6000818060200190518101906109ca9190611845565b905060001960ff821601610a91576000806000806000868060200190518101906109f491906118ad565b95509550955095509550507f00000000000000000000000000000000000000000000000000000000000000006001600160a01b031663108eaa9085858585468b6040518763ffffffff1660e01b8152600401610a559695949392919061196d565b600060405180830381600087803b158015610a6f57600080fd5b505af1158015610a83573d6000803e3d6000fd5b505050505050505050610c40565b60011960ff821601610b4f5760008060008085806020019051810190610ab791906119d4565b9450945094509450507f00000000000000000000000000000000000000000000000000000000000000006001600160a01b031663e59553f284848446896040518663ffffffff1660e01b8152600401610b14959493929190611a4a565b600060405180830381600087803b158015610b2e57600080fd5b505af1158015610b42573d6000803e3d6000fd5b5050505050505050610c40565b60021960ff821601610c015760008083806020019051810190610b729190611a90565b6040516378aea7b760e11b815291945092506001600160a01b037f000000000000000000000000000000000000000000000000000000000000000016915063f15d4f6e90610bc890849046908790600401611ae7565b600060405180830381600087803b158015610be257600080fd5b505af1158015610bf6573d6000803e3d6000fd5b505050505050610c40565b60405162461bcd60e51b8152602060048201526014602482015273496e76616c6964206d657373616765207479706560601b604482015260640161032e565b4663ffffffff16836001600160a01b03167f27c637980bd7152f605d3e2d7d5f967eb1cb75a4faecfb00cbaffd741f832a4384604051610c809190611788565b60405180910390a3505050565b60018181548110610c9d57600080fd5b9060005260206000209060089182820401919006600402915054906101000a900463ffffffff1681565b60606001805480602002602001604051908101604052809291908181526020018280548015610d4157602002820191906000526020600020906000905b82829054906101000a900463ffffffff1663ffffffff1681526020019060040190602082600301049283019260010382029150808411610d045790505b5050505050905090565b336001600160a01b037f00000000000000000000000000000000000000000000000000000000000000001614610d935760405162461bcd60e51b815260040161032e90611568565b63ffffffff85166000908152602081905260409020546001600160a01b031680610dcf5760405162461bcd60e51b815260040161032e906115f2565b60004233878786604051602001610dea959493929190611b12565b604051602081830303815290604052805190602001209050600060018288888888604051602001610e2096959493929190611b80565b60408051808303601f1901815290829052805163a66b327d60e01b835260048301524860248301819052909250906000907f00000000000000000000000000000000000000000000000000000000000000006001600160a01b03169063a66b327d90604401602060405180830381865afa158015610ea2573d6000803e3d6000fd5b505050506040513d601f19601f82011682018060405250810190610ec691906116f9565b905080341015610f225760405162461bcd60e51b815260206004820152602160248201527f496e73756666696369656e742066756e647320666f72207375626d697373696f6044820152603760f91b606482015260840161032e565b60006001600160a01b037f00000000000000000000000000000000000000000000000000000000000000001663679b6ded348884863380622dc6c0610f688c6002611712565b8d6040518a63ffffffff1660e01b8152600401610f8c989796959493929190611729565b60206040518083038185885af1158015610faa573d6000803e3d6000fd5b50505050506040513d601f19601f82011682018060405250810190610fcf91906116f9565b90508a63ffffffff16336001600160a01b031682600080516020611be5833981519152876040516110009190611788565b60405180910390a45050505050505050505050565b336001600160a01b037f0000000000000000000000000000000000000000000000000000000000000000161461105d5760405162461bcd60e51b815260040161032e90611568565b6001600160a01b0381166110b35760405162461bcd60e51b815260206004820152601c60248201527f496e76616c6964207065657220666163746f7279206164647265737300000000604482015260640161032e565b468263ffffffff16036111125760405162461bcd60e51b815260206004820152602160248201527f43616e6e6f7420616464207065657220666f722063757272656e7420636861696044820152603760f91b606482015260840161032e565b63ffffffff82166000908152602081905260409020546001600160a01b031661118f576001805480820182556000919091527fb10e2d527612073b26eecdfd717e6a320cf44b4afac2b0732d9fcbe2b7fa0cf66008820401805460079092166004026101000a63ffffffff81810219909316928516029190911790555b63ffffffff821660008181526020819052604080822080546001600160a01b0319166001600160a01b03861690811790915590519092917ffb2cc13e17959d24fff366720ef34f17ba508927929fe993e3be4c24922836a591a35050565b803563ffffffff8116811461120157600080fd5b919050565b60006020828403121561121857600080fd5b611221826111ed565b9392505050565b634e487b7160e01b600052604160045260246000fd5b604051601f8201601f191681016001600160401b038111828210171561126657611266611228565b604052919050565b60006001600160401b0382111561128757611287611228565b50601f01601f191660200190565b60006112a86112a38461126e565b61123e565b90508281528383830111156112bc57600080fd5b828260208301376000602084830101529392505050565b600082601f8301126112e457600080fd5b61122183833560208501611295565b6000806040838503121561130657600080fd5b61130f836111ed565b915060208301356001600160401b0381111561132a57600080fd5b611336858286016112d3565b9150509250929050565b6001600160a01b038116811461135557600080fd5b50565b6000806000806080858703121561136e57600080fd5b611377856111ed565b935060208501356001600160401b0381111561139257600080fd5b61139e878288016112d3565b93505060408501356113af81611340565b9396929550929360600135925050565b600080604083850312156113d257600080fd5b82356113dd81611340565b915060208301356001600160401b038111156113f857600080fd5b8301601f8101851361140957600080fd5b61133685823560208401611295565b60006020828403121561142a57600080fd5b5035919050565b602080825282518282018190526000918401906040840190835b8181101561146f57835163ffffffff1683526020938401939092019160010161144b565b509095945050505050565b600080600080600060a0868803121561149257600080fd5b61149b866111ed565b945060208601356001600160401b038111156114b657600080fd5b6114c2888289016112d3565b94505060408601356001600160401b038111156114de57600080fd5b6114ea888289016112d3565b93505060608601356001600160401b0381111561150657600080fd5b611512888289016112d3565b925050608086013561152381611340565b809150509295509295909350565b6000806040838503121561154457600080fd5b61154d836111ed565b9150602083013561155d81611340565b809150509250929050565b60208082526015908201527413db9b1e48199858dd1bdc9e4818d85b8818d85b1b605a1b604082015260600190565b634e487b7160e01b600052603260045260246000fd5b634e487b7160e01b600052601160045260246000fd5b818103818111156115d6576115d66115ad565b92915050565b634e487b7160e01b600052603160045260246000fd5b6020808252601b908201527f54617267657420636861696e206e6f7420636f6e666967757265640000000000604082015260600190565b60005b8381101561164457818101518382015260200161162c565b50506000910152565b8381526001600160601b03198360601b16602082015260008251611678816034850160208701611629565b7013125455525112551657d0d49150551151607a1b60349390910192830152506045019392505050565b600081518084526116ba816020860160208601611629565b601f01601f19169290920160200192915050565b60ff841681528260208201526060604082015260006116f060608301846116a2565b95945050505050565b60006020828403121561170b57600080fd5b5051919050565b80820281158282048414176115d6576115d66115ad565b6001600160a01b038981168252602082018990526040820188905286811660608301528516608082015260a0810184905260c0810183905261010060e0820181905260009061177a908301846116a2565b9a9950505050505050505050565b60208152600061122160208301846116a2565b8581526001600160601b03198560601b166020820152600084516117c6816034850160208901611629565b80830190506001600160601b03198560601b166034820152836048820152606881019150509695505050505050565b60ff8616815284602082015260a06040820152600061181760a08301866116a2565b6001600160a01b0394909416606083015250608001529392505050565b805160ff8116811461120157600080fd5b60006020828403121561185757600080fd5b61122182611834565b600082601f83011261187157600080fd5b815161187f6112a38261126e565b81815284602083860101111561189457600080fd5b6118a5826020830160208701611629565b949350505050565b60008060008060008060c087890312156118c657600080fd5b6118cf87611834565b6020880151604089015191975095506001600160401b038111156118f257600080fd5b6118fe89828a01611860565b94505060608701516001600160401b0381111561191a57600080fd5b61192689828a01611860565b93505060808701516001600160401b0381111561194257600080fd5b61194e89828a01611860565b92505060a087015161195f81611340565b809150509295509295509295565b60c08152600061198060c08301896116a2565b828103602084015261199281896116a2565b905082810360408401526119a681886116a2565b6001600160a01b03969096166060840152505063ffffffff92909216608083015260a0909101529392505050565b600080600080600060a086880312156119ec57600080fd5b6119f586611834565b6020870151604088015191965094506001600160401b03811115611a1857600080fd5b611a2488828901611860565b9350506060860151611a3581611340565b60809690960151949793965091949392915050565b60a081526000611a5d60a08301886116a2565b6001600160a01b0396909616602083015250604081019390935263ffffffff919091166060830152608090910152919050565b600080600060608486031215611aa557600080fd5b611aae84611834565b6020850151604086015191945092506001600160401b03811115611ad157600080fd5b611add86828701611860565b9150509250925092565b606081526000611afa60608301866116a2565b63ffffffff9490941660208301525060400152919050565b8581526001600160601b03198560601b16602082015260008451611b3d816034850160208901611629565b845190830190611b54816034840160208901611629565b60609490941b6bffffffffffffffffffffffff1916930160348101939093525050604801949350505050565b60ff8716815285602082015260c060408201526000611ba260c08301876116a2565b8281036060840152611bb481876116a2565b90508281036080840152611bc881866116a2565b91505060018060a01b03831660a083015297965050505050505056fea1b5e151aab69aad3bba0aadbb76f97c342ff3282b432cefa8cf5ed9189633c6a26469706673582212200bbf9881d0fd395b142224cb4331da4a5cfef13e8c0320a4452bf10d510eab7664736f6c634300081c0033",
  "linkReferences": {},
  "deployedLinkReferences": {}
}